:10000000D3C0000000C10000FEC00000FCC0000022
:10001000FAC00000F8C00000F6C00000F4C0000004
:10002000F2C00000F0C00000EEC00000ECC0000014
:10003000EAC00000E8C00000E6C00000E4C0000024
:10004000E2C00000E0C00000DEC00000DCC0000034
:10005000DAC00000D8C00000D6C000006AC50000A9
:10006000D2C0000030C5000005C50000CCC00000B3
:10007000CAC00000C8C00000C6C00000C4C0000064
:10008000C2C00000C0C00000BEC00000BCC0000074
:10009000BAC00000B8C00000B6C00000B4C0000084
:1000A000B2C00000B0C00000AEC00000ACC0000094
:1000B000AAC00000A8C00000A6C00000A4C00000A4
:1000C000A2C00000A0C000009EC000009CC00000B4
:1000D0009AC0000098C0000096C0000094C00000C4
:1000E00092C0000000002200250028002B002E00F6
:1000F0003100340002010000050108010B0100007D
:100100002100240027002A002D00300033000101C7
:100110000000040107010A01050505050705080897
:100120000808020202020A0A080804040404010181
:100130000101010101010303030303030303040796
:1001400007070C0C0C0C0C0C0C0C0202020206062D
:100150000606060606060B0B0B0B0B0B0B0B010220
:1001600010202008081020401020408002010201C9
:100170000804020101020408102040808040201081
:1001800008040201800402018040201008040201DA
:100190000804020101020408102040800102040842
:1001A00010204080E3056E0811241FBECFEFD1E27E
:1001B000DEBFCDBF00E00CBF23E0A8E6B2E001C087
:1001C0001D92AA31B207E1F712E0A0E0B2E0E4E24A
:1001D000F6E100E00BBF02C007900D92A836B10710
:1001E000D9F710E0C3EDD0E000E005C02197010988
:1001F000802FFE01D3D7C23DD10780E00807B1F7B9
:100200001AD50C94010BFCCE0895AF92BF92CF92F9
:10021000DF92EF92FF920F931F93CF93DF936C01C6
:100220007B018B01040F151FEB015E01AE18BF08A7
:10023000C017D10759F06991D601ED91FC91019059
:10024000F081E02DC6011995892B79F7C501DF9161
:10025000CF911F910F91FF90EF90DF90CF90BF90C3
:10026000AF900895FC01538D448D252F30E0842FED
:1002700090E0821B930B541710F0CF9608950197CE
:100280000895FC01918D828D981761F0A28DAE0FBB
:10029000BF2FB11D5D968C91928D9F5F9F73928F42
:1002A00090E008958FEF9FEF08952FB7F894809115
:1002B0006F0290917002A0917102B09172022FBFF3
:1002C00080937B0290937C02A0937D02B0937E0288
:1002D00083E792E0D6DF97FF26C02FB7F89480918E
:1002E0006F0290917002A0917102B09172022FBFC3
:1002F00040917B0250917C0260917D0270917E0260
:10030000841B950BA60BB70B409177025091780296
:100310006091790270917A0284179507A607B70752
:10032000B8F28FEF9FEF0895FC01918D828D9817A1
:1003300031F0828DE80FF11D858D90E008958FEFEB
:100340009FEF0895FC01918D228D892F90E0805CB4
:100350009F4F821B91098F739927089583E792E03D
:10036000F1DF21E0892B09F420E0822F0895FC01C0
:10037000A48DA80FB92FB11DA35ABF4F2C91848D06
:1003800090E001968F739927848FA689B7892C9363
:10039000A089B1898C91837080648C93938D848DB6
:1003A000981306C00288F389E02D80818F7D8083B9
:1003B0000895EF92FF920F931F93CF93DF93EC0179
:1003C00081E0888F9B8D8C8D98131AC0E889F989FC
:1003D000808185FF15C09FB7F894EE89FF896083FF
:1003E000E889F98980818370806480839FBF81E080
:1003F00090E0DF91CF911F910F91FF90EF900895C2
:10040000F62E0B8D10E00F5F1F4F0F731127E02E9C
:100410008C8D8E110BC00FB607FCFACFE889F989D5
:10042000808185FFF5CFCE01A2DFF2CFEB8DEC0FFF
:10043000FD2FF11DE35AFF4FF0829FB7F8940B8F09
:10044000EA89FB8980818062D0CFCF93DF93EC0172
:10045000888D8823B1F0AA89BB89E889F9898C91B4
:1004600085FD03C0808186FD0CC00FB607FCF7CF69
:100470008C9185FFF2CF808185FFEDCFCE0177DFB4
:10048000EACFDF91CF91089580E090E0892B21F0B1
:1004900065DF81110E94000080E090E0892B49F027
:1004A00080E090E0892B29F00E94000081110E94D9
:1004B000000080E090E0892B49F080E090E0892BFB
:1004C00029F00E94000081110E94000080E090E06D
:1004D000892B49F080E090E0892B29F00E940000F0
:1004E00081110C9400000895CF93DF9390E0FC01FC
:1004F000E25AFE4F2491885E9E4FFC01849188232E
:10050000D1F090E0880F991FFC01E250FF4FA591B8
:10051000B491FC01EC51FF4FC591D49161110EC013
:100520009FB7F8948C91E22FE0958E238C932881CD
:10053000E223E8839FBFDF91CF9108958FB7F894AE
:10054000EC91E22BEC938FBFF6CF3FB7F8948091FC
:10055000690290916A02A0916B02B0916C0226B57B
:10056000A89B05C02F3F19F00196A11DB11D3FBFEB
:10057000BA2FA92F982F8827BC01CD01620F711DBA
:10058000811D911D42E0660F771F881F991F4A95B4
:10059000D1F708958F929F92AF92BF92CF92DF9240
:1005A000EF92FF92D2DF4B015C018CEDC82E85E00B
:1005B000D82EE12CF12CC9DF681979098A099B0929
:1005C000683E734081059105B0F321E0C21AD1085D
:1005D000E108F10888EE880E83E0981EA11CB11C8A
:1005E000C114D104E104F10431F7FF90EF90DF90E2
:1005F000CF90BF90AF909F908F900895FC01019095
:100600000020E9F73197AF01481B590BBC0183E784
:1006100092E0FBCDCF93DF9385E692E0EFDFEC0134
:1006200083E692E0EBDF8C0F9D1FDF91CF91089561
:100630008F929F92AF92BF92CF92DF92EF92FF92F2
:100640000F931F93CF93DF93CDB7DEB7A1970FB66C
:10065000F894DEBF0FBECDBF6C01990FEE08FF0806
:10066000F7FE43C06DE283E792E0A3DE8C01222710
:100670003327A9012C193D094E095F0919A2CE01A2
:1006800081967C019AE0892E912CA12CB12CCA0173
:10069000B901A501940160D5605DF70162937F0106
:1006A000211531054105510591F790E080E0309723
:1006B00011F0CF01A3DF080F191F83E692E09EDF40
:1006C000800F911FA1960FB6F894DEBF0FBECDBF6D
:1006D000DF91CF911F910F91FF90EF90DF90CF901E
:1006E000BF90AF909F908F900895A701960119A297
:1006F0008E010F5D1F4F8AE0C82ED12CE12CF12C0A
:10070000CA01B901A701960127D5605DF80162937E
:100710008F01211531054105510591F7309721F0E1
:10072000CF016CDF8C01C9CF10E000E0C6CFEF92A3
:10073000FF920F931F93CF93DF93CDB7DEB7C654CD
:10074000D1090FB6F894DEBF0FBECDBF8AE0E6E058
:10075000F2E0DE01119601900D928A95E1F78AE0B0
:10076000E0E1F2E0DE011B9601900D928A95E1F73F
:100770008AE0EAE1F2E0DE01559601900D928A9559
:10078000E1F78AE0E4E2F2E0DE015F9601900D928B
:100790008A95E1F78AE0EEE2F2E0DE0199960190B7
:1007A0000D928A95E1F78AE0E8E3F2E0DE01D39664
:1007B00001900D928A95E1F78AE0E2E4F2E0DE0131
:1007C000DD9601900D928A95E1F78E010F5F1F4F24
:1007D0007E0187E4E80EF11CF8018481958128DF11
:1007E000065F1F4F0E151F05B9F7CA5BDF4F0FB627
:1007F000F894DEBF0FBECDBFDF91CF911F910F9157
:10080000FF90EF900895EF92FF920F931F93CF9375
:10081000DF93CDB7DEB7C654D1090FB6F894DEBF6B
:100820000FBECDBF8AE0E6E0F2E0DE011196019056
:100830000D928A95E1F78AE0E0E1F2E0DE011B9695
:1008400001900D928A95E1F78AE0EAE1F2E0DE019B
:10085000559601900D928A95E1F78AE0E4E2F2E084
:10086000DE015F9601900D928A95E1F78AE0EEE253
:10087000F2E0DE01999601900D928A95E1F78AE007
:10088000E8E3F2E0DE01D39601900D928A95E1F75C
:100890008AE0E2E4F2E0DE01DD9601900D928A95B5
:1008A000E1F78E010F5F1F4F7E0187E4E80EF11C18
:1008B000F80186819781BCDE065F1F4F0E151F056C
:1008C000B9F7CA5BDF4F0FB6F894DEBF0FBECDBFDE
:1008D000DF91CF911F910F91FF90EF900895EF92CC
:1008E000FF920F931F93CF93DF93CDB7DEB7C6541C
:1008F000D1090FB6F894DEBF0FBECDBF8AE0E6E0A7
:10090000F2E0DE01119601900D928A95E1F78AE0FE
:10091000E0E1F2E0DE011B9601900D928A95E1F78D
:100920008AE0EAE1F2E0DE01559601900D928A95A7
:10093000E1F78AE0E4E2F2E0DE015F9601900D92D9
:100940008A95E1F78AE0EEE2F2E0DE019996019005
:100950000D928A95E1F78AE0E8E3F2E0DE01D396B2
:1009600001900D928A95E1F78AE0E2E4F2E0DE017F
:10097000DD9601900D928A95E1F78E010F5F1F4F72
:100980007E0187E4E80EF11CF8018085918550DE38
:10099000065F1F4F0E151F05B9F7CA5BDF4F0FB675
:1009A000F894DEBF0FBECDBFDF91CF911F910F91A5
:1009B000FF90EF900895FC0180819181009709F0EC
:1009C00091C408950F931F93CF93DF93EC01888117
:1009D0009981009759F02A813B812617370730F01B
:1009E00081E0DF91CF911F910F9108958B016F5F8F
:1009F0007F4F01D5009759F0998388831B830A8321
:100A00002C813D81232B61F7FC011082E9CF80E02E
:100A1000E8CFEF92FF920F931F93CF93DF93EC01F8
:100A20007B018A01BA01CEDF28813981811113C08F
:100A30002115310511F0C90155D4198218821D8282
:100A40001C821B821A82CE01DF91CF911F910F91E0
:100A5000FF90EF9008951D830C83B701C901B0D5B5
:100A6000F2CFFB0101900020E9F73197AF01461B5F
:100A7000570BCFCF1F920F920FB60F9211240BB6C8
:100A80000F922F933F934F935F936F937F938F9327
:100A90009F93AF93BF93EF93FF9383E792E067DC5D
:100AA000FF91EF91BF91AF919F918F917F916F9146
:100AB0005F914F913F912F910F900BBE0F900FBE02
:100AC0000F901F9018951F920F920FB60F9211243E
:100AD0000BB60F922F938F939F93EF93FF93E09119
:100AE0008302F09184028081E0918902F0918A0270
:100AF00082FD1DC0908180918C028F5F8F73209149
:100B00008D02821741F0E0918C02F0E0ED58FD4F2C
:100B1000958F80938C02FF91EF919F918F912F91F0
:100B20000F900BBE0F900FBE0F901F9018958081F5
:100B3000F2CF1F920F920FB60F9211242F933F9373
:100B40008F939F93AF93BF9380916F0290917002A8
:100B5000A0917102B09172023091680223E0230FDC
:100B60002D3758F50196A11DB11D20936802809381
:100B70006F0290937002A0937102B0937202809101
:100B8000690290916A02A0916B02B0916C02019689
:100B9000A11DB11D8093690290936A02A0936B021C
:100BA000B0936C02BF91AF919F918F913F912F9124
:100BB0000F900FBE0F901F90189526E8230F0296F6
:100BC000A11DB11DD2CFE3E7F2E01382128288EEBD
:100BD00093E0A0E0B0E084839583A683B78380E5AB
:100BE00092E09183808385EC90E09587848784EC04
:100BF00090E09787868780EC90E0918B808B81ECEA
:100C000090E0938B828B82EC90E0958B848B86ECCA
:100C100090E0978B868B118E128E138E148EE0E1EE
:100C2000F3E011821082138212821582148265E62B
:100C300072E0CF0116CFCF93DF93CDB7DEB72C97FD
:100C40000FB6F894DEBF0FBECDBF789484B5826036
:100C500084BD84B5816084BD85B5826085BD85B560
:100C6000816085BD80916E00816080936E001092DE
:100C70008100809181008260809381008091810059
:100C800081608093810080918000816080938000EA
:100C90008091B10084608093B1008091B000816048
:100CA0008093B00080919100826080939100809148
:100CB0009100816080939100809190008160809389
:100CC00090008091A10082608093A1008091A1009A
:100CD00081608093A1008091A00081608093A0003A
:100CE00080912101826080932101809121018160A6
:100CF0008093210180912001816080932001809167
:100D00007A00846080937A0080917A008260809378
:100D10007A0080917A00816080937A0080917A00D5
:100D2000806880937A001092C10061E08DE1DCDB85
:100D300061E08EE1D9DB61E08FE1D6DB60E083E04A
:100D4000D3DB60E082E0D0DB61E080E2CDDB61E01C
:100D500081E2CADB61E082E2C7DB60E085E0C4DB00
:100D600060E084E0C1DB61E083E2BEDB61E084E25D
:100D7000BBDB61E085E2B8DB60E087E0B5DB60E02B
:100D800086E0B2DB61E086E2AFDB61E087E2ACDB0C
:100D900061E088E2A9DB60E089E0A6DB60E088E052
:100DA000A3DB61E089E2A0DB61E08AE29DDB61E038
:100DB0008BE29ADB60E08BE097DB60E08AE094DB1B
:100DC00061E08CE291DB61E08DE28EDB61E08EE23E
:100DD0008BDB60E08DE088DB60E08CE085DB61E050
:100DE0008FE282DB61E08FE27FDB61E081E37CDB2D
:100DF00060E087E179DB60E086E176DB61E082E359
:100E000073DB61E083E370DB61E084E36DDB60E072
:100E100089E16ADB60E088E167DBE0918302F091C1
:100E2000840282E08083E0917F02F0918002108250
:100E3000E0918102F09182028FEC808310928B020C
:100E4000E0918702F091880286E08083E09185023C
:100E5000F0918602808180618083E0918502F0912B
:100E60008602808188608083E0918502F09186020D
:100E7000808180688083E0918502F0918602808184
:100E80008F7D80838EE592E0B9DB83E792E05ADACA
:100E9000892B09F421C11A8219821C821B821E82AD
:100EA0001D8250E040E065E672E0CE010196B1DDC2
:100EB000FCD997FD1CC08A309105C9F08F83188634
:100EC0000D811E810F5F1F4FB801CE0101967ADDA3
:100ED000882371F329813A818D819E81BE01695FEA
:100EE0007F4F820F931F6CD31E830D83E1CF8091C0
:100EF000100390911103009709F4C4C069817A81AD
:100F00006115710509F4BDC040911203509113039E
:100F10002D813E814217530708F4B3C051D38D8110
:100F20009E8190931503809314031E821D82CE012F
:100F3000019641DD8091140390911503892B09F4EA
:100F4000CBC0E0911003F09111038081882309F454
:100F5000C3C01A8219821C821B821E821D8266E611
:100F600072E0CE0101967DDDC0901403D090150390
:100F7000C114D10409F49DC0009110031091110314
:100F800069817A81C80123D3009709F492C09C013A
:100F9000201B310B89010F5F1F4FC016D10628F0AF
:100FA0009C2D8D2D6801092F182F18861F821A86F7
:100FB00019861C861B8665E672E0CE01079651DD18
:100FC000E0901403F0901503CE14DF0448F50E15DD
:100FD0001F0508F47801E0911003F0911103EE0D64
:100FE000FF1D1081108260911003709111036C0D30
:100FF0007D1D6115710509F45FC0FB0101900020A2
:10100000E9F73197AF01461B570BCE01079601DD7B
:101010008091100390911103E80EF91EF7011083DF
:101020008F819885009709F453C05BD08B01709332
:101030006E0260936D02CE010796BDDCCE01019673
:10104000BADC101611060CF047C010E000E08091E9
:101050006D0290916E02081719070CF03DC0E8DA96
:1010600066DBD8DAD0DBD6DA62DBD4DA93DA37DCC7
:10107000D1DAC9DBCFDA8EDA32DCCCDA0F5F1F4F80
:10108000E6CF30D189819A81909311038093100328
:101090008B819C8190931303809312038D819E8199
:1010A00090931503809314031A8219821C821B8269
:1010B0003CCF0FEF1FEF6FCF8F819885009709F01E
:1010C00011D118861F821C861B861A861986A0CF0E
:1010D00060E070E0CB01AACFD7D9D7CE80E193E012
:1010E0006ACC1F93FC0199278827BC01E8941191D1
:1010F0001032E9F3193010F01E30C8F31B3249F0FA
:101100001D3241F4689405C012D0610F711D811D1C
:10111000911D119110531A30B8F33EF490958095BB
:10112000709561957F4F8F4F9F4F1F910895592F55
:10113000482F372F262F660F771F881F991F660F9E
:10114000771F881F991F620F731F841F951F660FDB
:10115000771F881F991F0895A1E21A2EAA1BBB1B97
:10116000FD010DC0AA1FBB1FEE1FFF1FA217B30773
:10117000E407F50720F0A21BB30BE40BF50B661F89
:10118000771F881F991F1A9469F76095709580954D
:1011900090959B01AC01BD01CF010895EE0FFF1F9B
:1011A000881F8BBF0790F691E02D19940F931F9322
:1011B000CF93DF938230910510F482E090E0E091CC
:1011C0001803F091190330E020E0B0E0A0E0309780
:1011D00099F42115310509F44AC0281B390B243034
:1011E0003105D8F58A819B816115710589F1FB0173
:1011F00093838283FE0111C040815181028113815A
:1012000048175907E0F04817590799F4109761F00B
:1012100012960C93129713961C933296CF01DF917E
:10122000CF911F910F910895009318031093190304
:10123000F4CF2115310551F04217530738F0A901B9
:10124000DB019A01BD01DF01F801C1CFEF01F9CF48
:101250009093190380931803CDCFFE01E20FF31F83
:10126000819391932250310939832883D7CF2091DC
:10127000160330911703232B41F420910202309181
:10128000030230931703209316032091000230913C
:1012900001022115310541F42DB73EB740910402FA
:1012A00050910502241B350BE0911603F0911703B2
:1012B000E217F307A0F42E1B3F0B2817390778F02D
:1012C000AC014E5F5F4F2417350748F04E0F5F1F8C
:1012D0005093170340931603819391939FCFF0E0AF
:1012E000E0E09CCFCF93DF930097E9F0FC013297C9
:1012F00013821282A0911803B0911903ED0130E01E
:1013000020E01097A1F420813181820F931F20915A
:101310001603309117032817390709F061C0F093BD
:101320001703E0931603DF91CF910895EA01CE17DA
:10133000DF07E8F54A815B819E0141155105B1F750
:10134000E901FB83EA8349915991C40FD51FEC173A
:10135000FD0761F4808191810296840F951FE90158
:1013600099838883828193819B838A83F0E0E0E084
:1013700012968D919C9113970097B9F52D913C9100
:101380001197CD010296820F931F20911603309181
:1013900017032817390739F6309751F510921903BA
:1013A00010921803B0931703A0931603BCCFD383F6
:1013B000C28340815181840F951FC817D90761F4FA
:1013C0004E5F5F4F88819981480F591F5183408339
:1013D0008A819B81938382832115310509F0B0CFE7
:1013E000F0931903E09318039ECFFD01DC01C0CFF9
:1013F00013821282D7CF4F925F926F927F928F9219
:101400009F92AF92BF92CF92DF92EF92FF920F9393
:101410001F93CF93DF938C01009791F4CB01DF9161
:10142000CF911F910F91FF90EF90DF90CF90BF90E1
:10143000AF909F908F907F906F905F904F90B6CEBF
:10144000FC01E60FF71F9C0122503109E217F30758
:1014500008F4AAC0D901CD91DC911197C617D7071E
:1014600018F1C530D10570F0CE01049786179707A3
:1014700048F0C61BD70B2297C193D1936D937C93F1
:10148000CF0130DFC801DF91CF911F910F91FF9005
:10149000EF90DF90CF90BF90AF909F908F907F9014
:1014A0006F905F904F9008955B01AC1ABD0A4C019C
:1014B0008C0E9D1EA0911803B0911903512C412C44
:1014C000F12CE12C109731F58091160390911703C0
:1014D0008815990509F05CC04616570608F058C0F3
:1014E0008091000290910102009741F48DB79EB760
:1014F0004091040250910502841B950BE817F907EF
:1015000008F052C0F0931703E0931603F9017183BA
:101510006083B8CF8D919C91119712966C90129721
:1015200013967C901397A815B90559F56C0142E004
:10153000C40ED11CCA14DB0420F1AC014A195B09AA
:10154000DA011296159780F062827382518340838C
:10155000D9016D937C93E114F10471F0D7011396D6
:10156000FC93EE9312978ECF22968C0F9D1FF9015C
:1015700091838083F301EFCFF0931903E093180375
:1015800081CF4816590608F42C017D01D3019ACF6A
:10159000CB010CDE7C01009739F0AE01B80107D019
:1015A000C801A0DE87016ECF10E000E06BCFFB0129
:1015B000DC0102C001900D9241505040D8F70895CF
:1015C000FB01DC0101900D920020E1F70895FB0181
:1015D00051915523A9F0BF01DC014D9145174111EF
:1015E000E1F759F4CD010190002049F04D914015EB
:1015F0004111C9F3FB014111EFCF81E090E0019768
:10160000089510E0C3EDD0E000E005C0802FFE019A
:10161000C5DD2196011DC43DD10780E00807B1F763
:04162000F894FFCF6C
:1016240000001A038000020003001D001E001F00BA
:10163400040005002000210022000600070023000A
:1016440024002500080009002600270028000A00BD
:101654000B0029002A002B000C000D002C002D008B
:101664002E00160017002F0030003100000000008B
:10167400D901050132012502A201410194017374CB
:081684006172740D0A002000E0
:00000001FF
